:1000000021C045C044C043C042C007C540C03FC036
:100010003EC03DC03CC03BC03AC0C0C548C5000062
:100020000000370000000000380002020202020255
:10003000010204081020010200000400000000007A
:100040003600FA0611241FBECFE5D2E0DEBFCDBFD9
:1000500020E0A0E9B0E001C01D92AE3DB207E1F79B
:1000600010E0A0E6B0E0E0E0F3E102C005900D9200
:10007000A039B107D9F710E0C2E2D0E003C0219760
:10008000FE0132D9C132D107D1F7A1D537C9B8CFD6
:100090008F929F92AF92BF92CF92DF92EF92FF9298
:1000A000CF93DF93A091C900882311F03A2F01C0AC
:1000B00030E08091CA0090E0880F991F845C9F4FC8
:1000C000C090CF00D090D000E090D100F090D2004E
:1000D00040E050E0BA01FC01C591D49128812A2367
:1000E000231314C04A015B012FEF821A920AA20A5D
:1000F000B20A4C155D056E057F0518F4B501A40123
:10010000EACF30E020E080E090E003C0342F252FDC
:10011000CB01632F722FDF91CF91FF90EF90DF9093
:10012000CF90BF90AF909F908F900895CF92DF9225
:10013000EF92FF920F931F93CF93DF936C01EB012C
:100140007B01E40EF51E00E010E0CE15DF0561F046
:100150006991D601ED91FC910190F081E02DC601ED
:100160000995080F191FF1CFC801DF91CF911F9199
:100170000F91FF90EF90DF90CF90089587FF11C00F
:100180008F7741F0813041F0823041F0833041F08F
:100190008FEF07C085E005C082E003C084E001C0A6
:1001A00083E090E0FC01EA5CFF4F2491FC01E05DFC
:1001B000FF4F3491FC01E65DFF4FE491EE2309F41B
:1001C0003BC0222311F1213031F48AB58F778ABDEB
:1001D0008AB58F7B07C0223039F48AB58F7D8ABDFE
:1001E0008AB58F7E8ABD11C0233039F480B78F7DE8
:1001F00080BF80B78F7E80BF08C0243031F48CB5BB
:100200008F7D8CBD8CB58F7E8CBDF0E0EE0FFF1F17
:10021000EC5DFF4FA591B491611108C09FB7F894B0
:100220008C91309538233C939FBF08958FB7F894F5
:10023000EC913E2B3C938FBF0895CF93DF9387FFC4
:1002400011C08F7741F0813041F0823041F083302E
:1002500041F08FEF07C085E005C082E003C084E075
:1002600001C083E090E0FC01E05DFF4F2491FC01C0
:10027000E65DFF4F8491882361F190E0880F991F1C
:10028000FC01E25EFF4FC591D491FC01EC5DFF4F94
:10029000A591B491611109C09FB7F8948881209508
:1002A00082238883EC912E230BC0623061F49FB7C8
:1002B000F8948881322F309583238883EC912E2BFC
:1002C0002C939FBF06C08FB7F894E8812E2B28830C
:1002D0008FBFDF91CF9108953FB7F8948091B70019
:1002E0009091B800A091B900B091BA0022B708B6B9
:1002F00001FE05C02F3F19F00196A11DB11D3FBFA2
:10030000BA2FA92F982F8827820F911DA11DB11DEB
:10031000BC01CD0143E0660F771F881F991F4A95E6
:10032000D1F70895CF92DF92EF92FF92CF93DF93B0
:100330006B017C01D1DFEB01C114D104E104F104B4
:1003400071F0CADF6C1B7D0B683E7340A8F381E03F
:10035000C81AD108E108F108C851DC4FF2CFDF918B
:10036000CF91FF90EF90DF90CF900895CF92DF92E2
:10037000EF92FF920F931F93CF93DF93CDB7DEB72A
:10038000C054D1400FB6F894DEBF0FBECDBF2FB71B
:10039000F8948091BE009091BF00A091C000B091F0
:1003A000C1002FBF4091CB005091CC006091CD0097
:1003B0007091CE008C019D01041B150B260B370B91
:1003C000B901A801403D57406105710518F48091BD
:1003D000D300B1C08093CB009093CC00A093CD000C
:1003E000B093CE001092C6001092C5001092C400C7
:1003F0001092C3001092C20061E08091C700BEDE7F
:100400006AEF70E080E090E08DDF61E08091C700EE
:1004100014DF60E08091C700B1DE64E170E080E04D
:1004200090E080DFF89461E08091C700A7DE8CE463
:1004300090E00197F1F762E08091C700FEDE80E175
:1004400090E00197F1F780E023DE672B682B692BA2
:1004500021F41092D30078943BC081E019DE672B21
:10046000682B692BB1F38E010F5F1F4F6E012FEBCD
:10047000C21A2EEFD20A780180E00ADEF70160830B
:1004800071838283938381E003DEF7016483758344
:1004900086839783F8E0EF0EF11CEC14FD0461F7FE
:1004A000789420E030E0F801C080D180E280F380D1
:1004B0004481558166817781C114D104E104F1043E
:1004C00029F0411551056105710521F41092D30001
:1004D00080E031C0F90183E0F595E7958A95E1F771
:1004E000EE53FF4F8081880FC416D506E606F70647
:1004F00008F4816080832F5F3F4F085F1F4F2832D1
:10050000310589F62091C60030E04091C20080910B
:10051000C30090E0840F911D4091C400840F911D91
:100520004091C500840F911D99272817390771F64E
:1005300081E08093D300C05CDE4F0FB6F894DEBF3D
:100540000FBECDBFDF91CF911F910F91FF90EF9024
:10055000DF90CF900895CF92DF92EF92FF92CF93EA
:10056000DF93C82F03DF8823E1F18091C8008B302F
:1005700029F0B8F18551823040F033C06091C40059
:1005800070E080E090E066D41FC0D091C4006D2F71
:100590006F7770E080E090E05FD420E030E040E8EA
:1005A00053E4B9D46B017C016091C50070E080E038
:1005B00090E052D4A70196016BD52DEC3CEC4CECAD
:1005C0005DE3A9D4D7FD9058CC2379F026E636E632
:1005D00046EE5FE3A0D420E030E040E052E458D59E
:1005E00004C060E070E080EC9FE7DF91CF91FF9066
:1005F000EF90DF90CF900895C09AC29ABA9AB89AB5
:100600008FEF8FB98AE28DB980EF8EB90895FC0122
:1006100001900020E9F73197AF01481B590BBC014D
:1006200084ED90E083CD66D68EB98BE29EE09A95FC
:10063000F1F78DB9B29BFECF96E09A95F1F700C025
:100640008DB9769BF3CF8EE08A95F1F78FB19FEF4E
:100650009FB9B89A08950F931F93CF93DF93629534
:10066000607F4111616021116460FC0125812111CD
:100670006860FC01848191E09093BB00880F8093B7
:1006800090006093910082E08093BD008093BC0055
:1006900083E08093B500C29AB29BFECFF6E0FA9554
:1006A000F1F700C0C09886E08A95F1F700C0C298C3
:1006B000C09A779902C087E041C000E910E0C2E02B
:1006C000DFEF8091B5008370C9F0C298F801808196
:1006D0008FB980EFA9DFB8988EEFA6DF80FF08C042
:1006E0008091B50080FF02C086E028C085E026C06A
:1006F0008091B5008E7F8093B5000CC0B89880EFD4
:1007000093DFF8018083C13011F4DFB901C01FB855
:100710008EEF8ADFC1500F5F1F4FC111D2CFC0983B
:10072000C29AB29BFECFF6E0FA95F1F700C0C09AEC
:100730008EE08A95F1F7759903C088E08093B50043
:100740001092BD001092BC001092BB00DF91CF91BF
:100750001F910F9108950F931F93CF93DF93EC0197
:10076000162F042F21E077DF20E0402F612FCE01EC
:1007700072DF86E490E00197F1F7DF91CF911F914E
:100780000F9108950F931F93CF93DF938C01C62F82
:10079000D42F62956F70DFDF6C2F6F704D2FC80103
:1007A000DF91CF911F910F91D6CF40E0682F84ED5C
:1007B00090E0E8CF81E0F9DF8CE99FE00197F1F765
:1007C0000895CF93DF93CDB7DEB728970FB6F8948F
:1007D000DEBF0FBECDBF98E0E0E6F0E0DE0111968F
:1007E00001900D929A95E1F79091DD00691710F054
:1007F0006FEF690FE62FF0E0EE0FFF1F21E030E012
:100800002C0F3D1FE20FF31F9081890F80682896FF
:100810000FB6F894DEBF0FBECDBFDF91CF91C5CF2D
:1008200041E0B0DF81E090E008952F923F924F9237
:100830005F926F927F928F929F92AF92BF92CF9270
:10084000DF92EF92FF920F931F93CF93DF93CDB779
:10085000DEB7A5970FB6F894DEBF0FBECDBF6B0114
:100860007C01042F20E030E0A901F0D287FF0DC009
:1008700041E06DE284ED90E085DFF7FAF094F7F85F
:10088000F094AA24A394B12C02C0A12CB12C10E0A6
:1008900060E070E080E09FE3101739F020E030E086
:1008A00040E251E459D41F5FF7CFA7019601F0D37E
:1008B0002B013C01BED44B016C0119A2162F792DDE
:1008C000C6017E0121E2E20EF11CEAA2FBA2612F29
:1008D0002AE030E040E050E0E5D4822F6AE0D9D44D
:1008E000181B81E0E81AF1081A3014F4105D01C0F9
:1008F000195CF7011083122F732FCA01232B242BAD
:10090000252B29F7C70183DEA80EB91E002309F4A1
:100910006AC0B401C6019ED29B01AC01C301B20101
:10092000B6D36B017C0180E790E071DEA80EB91EA2
:1009300020E030E040E251E4C701B601ECD22B01E7
:100940003C0172D46B01770FEE08FF081601ECA290
:10095000FDA2F7FE11C041E06DE284ED90E012DFF0
:10096000F094E094D094C094C11CD11CE11CF11C03
:1009700088248394912C02C0812C912C1C2D7D2DD8
:10098000C70119A2EAA0FBA0612F2AE030E040E0F5
:1009900050E088D4822F6AE07CD4181BF1E0EF1A73
:1009A000F1081A3014F4105D01C0195CF7011083CE
:1009B000122F732FCA01232B242B252B29F7C701B4
:1009C00026DE880D991DA80EB91EB1018CA19DA12E
:1009D00043D29B01AC01C301B20159D36B017C012D
:1009E000015009F0A5CFC501A5960FB6F894DEBF5A
:1009F0000FBECDBFDF91CF911F910F91FF90EF9070
:100A0000DF90CF90BF90AF909F908F907F906F902E
:100A10005F904F903F902F9008951F920F920FB6C6
:100A20000F9211242F933F938F939F93AF93BF9374
:100A30008091BE009091BF00A091C000B091C10014
:100A40003091B60026E0230F2D3730F029E8230F30
:100A50000396A11DB11D03C00296A11DB11D2093D7
:100A6000B6008093BE009093BF00A093C000B093E7
:100A7000C1008091B7009091B800A091B900B091E9
:100A8000BA000196A11DB11D8093B7009093B800E4
:100A9000A093B900B093BA00BF91AF919F918F918D
:100AA0003F912F910F900FBE0F901F9018951F929E
:100AB0000F920FB60F9211242F938F939F93EF9362
:100AC000FF938091B2008230D9F128F4882349F055
:100AD0008130D1F059C08430C9F198F08530E1F10E
:100AE00053C08FB1882319F08FB1869529F5789B73
:100AF00002C081E001C084E08093B2001FB8B89AC0
:100B000041C08FB1811118C09091B3008091B400A1
:100B1000981791F08091B3008F5F8F708093B3002E
:100B2000E091B300F0E0E056FF4F80818FB982E0A2
:100B30008093B200B89A0EC0B89888EA8DB90AC0FE
:100B400083E08093B200B8981FB81CC085E0809302
:100B5000B200B89880E717C084E08093B2009FB1DC
:100B60008091B1008F5F8F702091B000821749F0A3
:100B70008093B100E091B100F0E0E057FF4F908327
:100B8000BDCFB8988EE78EB9FF91EF919F918F916D
:100B90002F910F900FBE0F901F9018951F920F92DC
:100BA0000FB60F9211248F931092B200B898B29B97
:100BB00004C0B09BFCCF88EA01C088EF8DB980EFFC
:100BC0008EB98F910F900FBE0F901F90189581B71F
:100BD00081BF8AB582608ABD8AB581608ABD83B7CC
:100BE000887F836083BF789489B7826089BF80B72C
:100BF000807F80BF80B7806880BF8CB580648CBDEB
:100C00008FEF8DBD80B7876080BF86B1887786689B
:100C100086B9379A62E08091C7000FDB80E398EFD6
:100C2000AFEFBFEF8093CB009093CC00A093CD00AB
:100C3000B093CE001092BD001092BC001092BB0089
:100C4000DBDC12E01093DD0088E08093DA00D4DC76
:100C500020E040E060E084ED90E0FDDC8CE996E887
:100C60000197F1F740E063E084ED90E074DDC4E2C9
:100C7000D3E2CE010197F1F740E063E084ED90E02C
:100C80006ADD2197F1F740E063E084ED90E063DDF9
:100C900088E291E00197F1F740E062E084ED90E0B6
:100CA0005ADD8091DA00806280DD84E08093DB0091
:100CB0008CE07BDD7FDD1093DC0086E076DD82E07A
:100CC00074DD8CE99FE00197F1F774DD88EC809387
:100CD000D90020E041E060E084ED90E0BCDC809150
:100CE000DB008E7F8093DB0088605FDD8091DB001E
:100CF0008D7F8093DB00886058DD82E790E087DCA1
:100D000060ED77E080E090E00DDB30DB882369F177
:100D10008091C8008B3001F140F18551823028F577
:100D20006091C20070E080E090E094D020E030E07C
:100D300040E853E4F0D06B017C016091C30070E0A7
:100D400080E090E089D0A7019601A2D12DEC3CEC87
:100D50004CEC5DE3E0D006C06091C20070E080E042
:100D600090E078D06B017C0106C0C12CD12C80ECC6
:100D7000E82E8FE7F82E80E0EEDB2B013C0181E0CE
:100D8000EADB4B015C01A7019601C701B6017DD2E8
:100D900081110EC0A3019201C301B20176D281116B
:100DA00007C0A5019401C501B4016FD2882339F0B1
:100DB00001DD60E082E005DD8FE790E0A0CF60E03C
:100DC00081E0FFDC42E0C301B2012FDD86E890E064
:100DD0001EDC42E0C501B40128DD89E890E017DCA3
:100DE00061E081E0EEDC42E0C701B6011EDD8BE888
:100DF00090E085CFA2ECB0E083E015968C93159738
:100E00008BE016968C931697E3E3F0E0E491179647
:100E1000EC931797EDE2F0E0E4911896EC931897B5
:100E200040E45FE160E070E01D964D935D936D934B
:100E30007C935097E4EDF0E0138212828CE690E010
:100E40009183808387E284831582089540D008F4DB
:100E500081E00895E89409C097FB3EF49095809551
:100E6000709561957F4F8F4F9F4F9923A9F0F92F70
:100E700096E9BB279395F695879577956795B795EE
:100E8000F111F8CFFAF4BB0F11F460FF1BC06F5FD4
:100E90007F4F8F4F9F4F16C0882311F096E911C0E6
:100EA000772321F09EE8872F762F05C0662371F007
:100EB00096E8862F70E060E02AF09A95660F771F1B
:100EC000881FDAF7880F9695879597F90895990FF7
:100ED0000008550FAA0BE0E8FEEF16161706E80704
:100EE000F907C0F012161306E407F50798F0621B25
:100EF000730B840B950B39F40A2661F0232B242BFA
:100F0000252B21F408950A2609F4A140A6958FEF18
:100F1000811D811D08950AD080C071D028F076D03F
:100F200018F0952309F062C067C0ABC087D0A8F362
:100F30009923D9F35523C9F3950F50E0551FAA27DC
:100F4000EE27FF27BB2700240894679520F4E20FC3
:100F5000F31FB41F0A1E220F331F441FAA1F6695DA
:100F6000A9F7779530F4F30FB41F0A1E121E08F488
:100F70006395330F441FAA1F221F769599F7879513
:100F800020F4B40F0A1E121E631F440FAA1F221F53
:100F9000331F8695A9F7862F712D602D11249F5739
:100FA00050408AF0E1F088234AF0EE0FFF1FBB1F8C
:100FB000661F771F881F91505040A9F79E3F51052B
:100FC00070F014C05EC05F3FECF3983EDCF3869592
:100FD00077956795B795F795E7959F5FC1F7FE2BD6
:100FE000880F911D9695879597F9089597F99F67B2
:100FF00080E870E060E008959FEF80EC08950024A1
:101000000A941616170618060906089500240A946D
:1010100012161306140605060895092E0394000CF3
:1010200011F4882352F0BB0F40F4BF2B11F460FF82
:1010300004C06F5F7F4F8F4F9F4F089557FD9058AB
:10104000440F551F59F05F3F71F04795880F97FB8C
:10105000991F61F09F3F79F0879508951216130646
:101060001406551FF2CF4695F1DF08C01616170675
:101070001806991FF1CF86957105610508940895AA
:10108000E894BB2766277727CB0197F90895505836
:10109000BB27AA270ED0C1CFB2DF30F0B7DF20F0D8
:1010A00031F49F3F11F41EF4A7CF0EF4E095E7FB57
:1010B0009DCFE92FC3DF80F3BA1762077307840758
:1010C000950718F071F49EF5DBCF0EF4E0950B2E2A
:1010D000BA2FA02D0B01B90190010C01CA01A0018A
:1010E0001124FF27591B99F0593F50F4503E68F1E5
:1010F0001A16F040A22F232F342F4427585FF3CF26
:10110000469537952795A795F0405395C9F77EF4F6
:101110001F16BA0B620B730B840BBAF09150A1F03F
:10112000FF0FBB1F661F771F881FC2F70EC0BA0FC5
:10113000621F731F841F48F4879577956795B7954D
:10114000F7959E3F08F0B3CF9395880F08F0992745
:10115000EE0F9795879508950CD05FCF57DF40F03D
:101160004EDF30F021F45F3F19F040CF511189CFAD
:1011700043CF64DF98F39923C9F35523B1F3951B4B
:10118000550BBB27AA2762177307840738F09F5FA8
:101190005F4F220F331F441FAA1FA9F333D00E2E17
:1011A0003AF0E0E830D091505040E695001CCAF784
:1011B00029D0FE2F27D0660F771F881FBB1F261749
:1011C00037074807AB07B0E809F0BB0B802DBF011C
:1011D000FF2793585F4F2AF09E3F510568F006CFD6
:1011E00050CF5F3FECF3983EDCF38695779567959B
:1011F000B795F7959F5FC9F7880F911D96958795CD
:1012000097F90895E1E0660F771F881FBB1F6217EB
:1012100073078407BA0720F0621B730B840BBA0BA9
:10122000EE1F88F7E095089504D06894B11129CF96
:1012300008950CDF88F09F5790F0B92F9927B75188
:10124000A0F0D1F0660F771F881F991F1AF0BA958A
:10125000C9F712C0B13081F013DFB1E0089510CFAB
:10126000672F782F8827B85F39F0B93FCCF3869580
:1012700077956795B395D9F73EF4909580957095DD
:1012800061957F4F8F4F9F4F089521DE880B990BFB
:101290000895002480FD060E660F11F08695D1F7A3
:1012A000802D0895A1E21A2EAA1BBB1BFD010DC0C3
:1012B000AA1FBB1FEE1FFF1FA217B307E407F50706
:1012C00020F0A21BB30BE40BF50B661F771F881FE2
:1012D000991F1A9469F760957095809590959B0178
:1012E000AC01BD01CF010895EE0FFF1F0590F491F1
:1012F000E02D099481E090E0F89400C0F894FFCFCD
:10130000000040001400540000000000100496008B
:101310002E0044485431312053656E736F7200457E
:1013200072726F722100432F0046002520200000BA
:00000001FF
